:100000000C942A000C943F000C943F000C943F0089
:100010000C943F000C943F000C943F000C943F0064
:100020000C943F000C943F000C943F000C943F0054
:100030000C943F000C943F000C943F000C943F0044
:100040000C943F000C943F000C943F000C943F0034
:100050000C943F0011241FBECFE5D8E0DEBFCDBF1A
:1000600010E0A0E6B0E0EAE0F7E002C005900D92F3
:10007000A038B107D9F70E9472030C9483030C9443
:100080000000EF92FF920F931F93CF93DF93C8E787
:10009000D0E09CE7E92E90E0F92E0991F70111914B
:1000A0007F0140E0602F812F0E94E90141E0602F35
:1000B000812F0E943702F0E0CC37DF0771F7C0E7ED
:1000C000D0E084E7E82E80E0F82E0991F701119145
:1000D0007F0141E0602F812F0E94E90141E0602F04
:1000E000812F0E943702F0E0C437DF0771F7DF91FC
:1000F000CF911F910F91FF90EF9008954F925F92D3
:100100006F927F928F929F92AF92BF92CF92DF9227
:10011000EF92FF920F931F93CF93DF930F92CDB780
:10012000DEB7198250E7852E50E0952E64E7662EE3
:1001300060E0762EA12CB12CF4014080F3015080B8
:1001400040E0642D852D0E94370238E7C32E30E051
:10015000D32E4CE7E42E40E0F42E00E010E0AE0198
:100160004F5F5F4FF6016081F70180810E94850239
:100170008981811589F19FEFC91AD90AEFEFEE1A2B
:10018000FE0A0F5F1F4F0430110549F7FFEF8F1A6A
:100190009F0A2FEF621A720A41E0642D852D0E949A
:1001A00037028FEFA81AB80A94E0A916B10421F615
:1001B0001FEF812F0F90DF91CF911F910F91FF9033
:1001C000EF90DF90CF90BF90AF909F908F907F90F7
:1001D0006F905F904F900895C501880F991F880F09
:1001E000991F805A9F4FFC01E00FF11F108141E0E1
:1001F000642D852D0E943702FFEF20E782E0F15049
:1002000020408040E1F700C00000D3CFCF93DF93C0
:100210000F92CDB7DEB7898341E060E080E00E94B5
:10022000370240E061E080E00E943702698182E0AD
:100230000E94750241E062E080E00E9437028FEC8C
:1002400097E00197F1F700C0000040E062E080E035
:100250000F90DF91CF910C943702CF93DF930F92E1
:10026000CDB7DEB7898340E060E080E00E943702CE
:1002700040E061E080E00E943702698182E00E94F4
:10028000750241E062E080E00E9437028FEC97E067
:100290000197F1F700C0000040E062E080E00F90BD
:1002A000DF91CF910C943702613009F008950C94DE
:1002B0000601613009F008950C942D01813009F098
:1002C000089541E060E080E00E94E90141E061E0E2
:1002D00080E00E94E90141E062E080E00E94E901E3
:1002E0006FEF82E00E9427022FEB8AED90E0215011
:1002F00080409040E1F700C0000088E30E942D019B
:100300008FEC97E00197F1F700C000008EE00E94AB
:100310002D018FEC97E00197F1F700C0000081E01C
:100320000E942D018FE99FE00197F1F700C00000C6
:1003300086E00E942D018FEC97E00197F1F700C055
:10034000000008950F931F93CF938C01009771F0D5
:10035000FC018081811551F0C0E0613059F0CF5F20
:10036000F801EC0FF11D80818111F7CFCF911F9122
:100370000F9108950E940601CF5FF801EC0FF11D67
:1003800080818111F7CFF2CF813048F029F480E4E9
:10039000860F80680C942D0180E80C942D01862F27
:1003A00080680C942D0141E00C94E901413021F06A
:1003B000423009F0089540E00C943702413019F0C2
:1003C000423021F0089540E00C94370241E00C9453
:1003D00037028430C0F46830B0F44130A9F098F4AA
:1003E00021E001C0220F6A95EAF72095823039F1A9
:1003F000833031F0813039F18AB382238ABB08958A
:1004000081B3822381BB089521E001C0220F6A9548
:10041000EAF7823061F0833031F0813061F08AB3E5
:10042000822B8ABB089581B3822B81BB089584B34C
:10043000822B84BB089587B3822B87BB089584B336
:10044000822384BB089587B3822387BB08958230BB
:1004500049F020F4811541F067BB0895833031F4F1
:1004600061BB089564BB08956ABB08950895843004
:10047000C0F46830B0F44130A9F098F421E001C034
:10048000220F6A95EAF72095823039F1833031F0F6
:10049000813039F18BB382238BBB089582B38223E1
:1004A00082BB089521E001C0220F6A95EAF78230ED
:1004B00061F0833031F0813061F08BB3822B8BBBE4
:1004C000089582B3822B82BB089585B3822B85BBAE
:1004D000089588B3822B88BB089585B3822385BB9A
:1004E000089588B3822388BB0895823049F020F4B0
:1004F000811541F068BB0895833031F462BB0895E3
:1005000065BB08956BBB0895089541155105A1F091
:10051000843090F4683080F4823099F0833079F040
:10052000813059F486B390E002C0959587956A951D
:10053000E2F78170FA018083089589B3F4CF80B324
:10054000F2CF83B3F0CF6115710571F0823091F075
:1005500030F4811559F086B3FB0180830895833010
:1005600021F480B3FB0180830895089589B3FB01D2
:100570008083089583B3FB01808308958230B9F0AE
:1005800058F48115E9F088B321E001C0220F6A9583
:10059000EAF7822788BB08958330D9F482B321E03B
:1005A00001C0220F6A95EAF7822782BB089585B3BE
:1005B00021E001C0220F6A95EAF7822785BB0895E2
:1005C0008BB321E001C0220F6A95EAF782278BBB2B
:1005D000089508958630A1F0873019F0853029F10B
:1005E0000895613050F109F441C06230C1F16330C7
:1005F000B9F785B7846085BF85B7886085BF0895E2
:10060000613060F009F16230C1F1633049F785B7BC
:10061000816085BF85B7826085BF089585B78E7F6D
:1006200085BF85B78D7F85BF08956230A1F06330A7
:10063000B9F684B7806484BF089585B78B7F85BF82
:1006400085B7877F85BF089585B7816085BF85B7EA
:100650008D7F85BF089584B78F7B84BF089585B74C
:100660008B7F85BF85B7886085BF089585B7846017
:1006700085BF85B7877F85BF089585B78E7F85BF86
:1006800085B7826085BF0895863049F0873019F0BC
:10069000853049F008958BB780688BBF08958BB77C
:1006A00080648BBF08958BB780628BBF08958630BE
:1006B00049F0873019F0853049F008958BB78F776E
:1006C0008BBF08958BB78F7B8BBF08958BB78F7DC2
:1006D0008BBF08958FB780688FBF08958FB78F77CE
:1006E0008FBF089581E00E945E010E9441000E9438
:1006F0007E008F3FE1F361E00E9454010E947E0082
:0A0700008F3FA9F3F8CFF894FFCF64
:10070A00313233413435364237383943453058442B
:10071A0000010203010101010405060701010101AB
:00000001FF
