:100000000C942A000C94F9070C9422080C944B08C9
:100010000C9447000C9447000C9447000C94470044
:100020000C9447000C9447000C9447000C94470034
:100030000C9447000C94D5090C94290A0C94000ADE
:100040000C9447000C9447000C9447000C94470014
:100050000C94470011241FBECFE5D8E0DEBFCDBF12
:1000600012E0A0E6B0E0E4E0FBE102C005900D92F2
:10007000A430B107D9F722E0A4E0B2E001C01D929C
:10008000A132B207E1F70E94520A0C94790D0C9448
:1000900000001092040208958091040208951092C5
:1000A00004020895EF92FF920F931F93CF93DF9373
:1000B00000D000D0CDB7DEB760E080E00E9403063C
:1000C00060E08CE890E00E94DF0561E080E00E9443
:1000D00003068E010F5F1F4F7E0125E0E20EF11C2B
:1000E0000E941B0490ED980F9A30D0F7F80181938D
:1000F0008F0160E08AE20E94B004FFEF21EE84E00D
:10010000F15020408040E1F700C000000E941B0435
:100110008F3FE1F70E151F0519F78A818233E1F051
:100120001092040260E080E00E94030660E08FEA23
:1001300090E00E94DF0541E064E080E00E94540608
:1001400080E00F900F900F900F90DF91CF911F9153
:100150000F91FF90EF9008958B81833309F78C8185
:100160008433F1F689818133D9F681E080930402EA
:1001700060E080E00E94030660E086E990E00E9473
:10018000DF0582EA90E00E945B0941E063E080E0E5
:100190000E94540681E0D5CF8091040281110BC0EA
:1001A00029C0823421F1833451F18434E9F0809103
:1001B0000402811519F160E080E00E94030660E00E
:1001C0008EEB90E00E94DF0561E080E00E94030674
:1001D00060E08DEC90E00E94DF050E941B048134FA
:1001E00001F70E946A02E3CF1092040208950E9470
:1001F0007402DDCF0E9452008111D9CF08950E9470
:100200004D038CED90E00E945B09D1CF1092050266
:1002100008950F931F93CF93DF9300D000D000D0A9
:10022000CDB7DEB70E945C02811182C060E081E040
:100230000E94000560E08AEE90E00E94DF050E94C7
:100240007803682F70E080E090E040E00E9415069F
:1002500061E080E00E94030660E086EF90E00E948B
:10026000DF050E941B048534E1F760E081E00E9415
:10027000000560E08EEF90E00E94DF0561E080E025
:100280000E9403068E010F5F1F4FCE0105968D83DE
:100290009E830E941B0490ED980F9A30D0F7F801CE
:1002A00081938F0160E08AE20E94B0048D819E817B
:1002B0000817190771F78981813319F48A8182330C
:1002C000E1F160E081E00E94000560E08FEA90E0EB
:1002D0000E94DF0541E064E080E00E94540641E0B6
:1002E00063E080E00E945C062FEF8EE994E22150EB
:1002F00080409040E1F700C0000041E064E080E011
:100300000E945C0641E063E080E00E94540660E0E9
:1003100081E00E940005109205020F900F900F904F
:100320000F900F900F90DF91CF911F910F91089533
:100330000E942E0210920502F0CF8B81833309F6C2
:100340008C81843309F0BDCF60E081E00E9400051C
:1003500060E08DE091E00E94DF050E946A028CE17E
:1003600091E00E945B090E9463039FEFE3EDF0E3DD
:100370009150E040F040E1F700C000000E9474029C
:100380000E947E03811529F00E942E021092050220
:10039000C4CF0E944502FACF81E080930502089500
:1003A00080910502089560E081E00E94000560E010
:1003B0008EE291E00C94DF0581E0809306020895BF
:1003C0001092060208950E947D0260E081E00E9482
:1003D000000560E080E00E94030660E08BE391E0AE
:1003E0000E94DF050E946D038AE491E00E945B0990
:1003F0002FEF83ED90E3215080409040E1F700C063
:1004000000000E9487020E947E03811531F00E9445
:100410002E0260E081E00C9400050E94450260E03D
:1004200081E00C94000580910602813011F080E09B
:10043000089510920602089563E080E00E9451063C
:1004400064E080E00E94510641E063E080E00E94A9
:100450005C0641E064E080E00C945C0660E081E0D2
:100460000E94000560E08BE591E00E94DF0541E01D
:1004700064E080E00E94540641E063E080E00E9476
:100480005C0688E691E00C945B0960E081E00E94E4
:10049000000560E086E791E00E94DF0541E063E04F
:1004A00080E00E94540641E064E080E00E945C0627
:1004B00088E891E00C945B090E947803982F81E012
:1004C000911180E008950E9486030E94B703109264
:1004D000070208950E949A038BE991E00E945B094C
:1004E00081E08093070208950E94B7038EEA91E0AD
:1004F0000E945B091092070208950E949A0381EC02
:1005000091E00E945B0981E08093070208950E94B8
:10051000B70383ED91E00E945B09109207020895F2
:100520008091070208950C944502CF930E947803AE
:10053000C82F809160008C1791F060E081E00E94EC
:10054000000560E08AEE90E00E94DF056C2F70E00D
:1005500080E090E040E00E941506C0936000CF91DB
:100560000895EF92FF920F931F93CF93DF93CDB730
:10057000DEB72B970FB6F894DEBF0FBECDBF40E0BD
:1005800062E083E00E94670640E063E083E00E944F
:10059000670641E062E083E00E94B50641E063E067
:1005A00083E00E94B50666E086E00E94680766E088
:1005B00087E00E9468076CEC71E080E00E94EB0726
:1005C0006CED71E081E00E94EB0786E00E94C507B8
:1005D00087E00E94C5070E9474088BE0E1E6F0E026
:1005E000DE01119601900D928A95E1F7E980FA807B
:1005F0000B811C812D813E814F81588569857A85CB
:100600008B850E947C080E94DE0380E00E945005DA
:1006100063E080E00E94510664E080E00E945106A1
:1006200084E10E944B030E9406010E94E0010E94A7
:1006300063020E941C020E9449000E94930260E033
:1006400081E00E94000560E080E00E94030660E017
:1006500085EE91E00E94DF0560E081E00E940306E4
:1006600060E080EF91E00E94DF052FEF83ED90E3E3
:10067000215080409040E1F700C000002B960FB65B
:10068000F894DEBF0FBECDBFDF91CF911F910F91C8
:10069000FF90EF9008950C945E030E94D0018111A9
:1006A00005C00E941302811107C008950E9409012C
:1006B0000E9413028115C9F30C94E301809309028F
:1006C00010920802089580910802909109028917FA
:1006D00018F48F5F809308020895809108028115B5
:1006E00019F08150809308020895809108020895BE
:1006F0008091090290910802891B089581E0209160
:10070000080290910902291380E0089541E065E014
:1007100083E00E94670641E066E083E00E9467068E
:1007200040E065E083E00E94B50640E066E083E0DB
:100730000C94B50641E065E083E00E94B50640E018
:1007400066E083E00E94B5062FEF82E597E0215036
:1007500080409040E1F700C0000040E065E083E0A9
:100760000E94B50640E066E083E00C94B50640E0E8
:1007700065E083E00E94B50641E066E083E00E9408
:10078000B5062FEF82E597E0215080409040E1F7D9
:1007900000C0000040E065E083E00E94B50640E054
:1007A00066E083E00C94B50640E065E083E00E94DB
:1007B000B50640E066E083E00C94B506EF92FF9248
:1007C0000F931F93CF93DF93C4E8D0E098E8E92E0E
:1007D00090E0F92E0991F70111917F0140E0602F1F
:1007E000812F0E94670641E0602F812F0E94B5068D
:1007F000F0E0C838DF0771F7CCE7D0E080E8E82EFA
:1008000080E0F82E0991F70111917F0141E0602FFE
:10081000812F0E94670641E0602F812F0E94B5065C
:10082000F0E0C038DF0771F7DF91CF911F910F9192
:10083000FF90EF9008952F923F924F925F926F92A8
:100840007F928F929F92AF92BF92CF92DF92EF9260
:10085000FF920F931F93CF93DF930F92CDB7DEB725
:1008600019825CE7852E50E0952E60E8662E60E0E8
:10087000762EA12CB12CF4012080F301308040E0D1
:10088000622D832D0E94B50634E8C32E30E0D32EAE
:1008900048E8E42E40E0F42E00E010E0F60150803D
:1008A000F7014080AE014F5F5F4F652D842D0E94A0
:1008B00003078981811599F19FEFC91AD90AEFEFD2
:1008C000EE1AFE0A0F5F1F4F0430110539F7FFEFD4
:1008D0008F1A9F0A8FEF681A780A41E0622D832DE4
:1008E0000E94B5069FEFA91AB90AE4E0AE16B1045A
:1008F00011F61FEF812F0F90DF91CF911F910F9174
:10090000FF90EF90DF90CF90BF90AF909F908F902F
:100910007F906F905F904F903F902F900895C5010A
:10092000880F991F880F991F84599F4FFC01E00F72
:10093000F11F1081AE014F5F5F4F652D842D0E9426
:10094000030789818115B1F38FE39CE90197F1F7E2
:1009500000C0000041E0622D832D0E94B506CACF81
:10096000CF93DF930F92CDB7DEB789836130E1F18A
:1009700020F00F90DF91CF91089541E080E00E9438
:10098000B50640E061E080E00E94B5066981607FC5
:1009900081E00E94F30641E062E080E00E94B5063B
:1009A0008FEC97E00197F1F700C0000040E062E0B3
:1009B00080E00E94B50669816295607F81E00E94B7
:1009C000F30641E062E080E00E94B5068FEC97E01C
:1009D0000197F1F700C0000040E062E080E00F9076
:1009E000DF91CF910C94B50641E060E080E00E9479
:1009F000B50640E061E080E00E94B5066981DECF87
:100A0000CF93DF930F92CDB7DEB789836130E1F1E9
:100A100020F00F90DF91CF91089540E080E00E9498
:100A2000B50640E061E080E00E94B5066981607F24
:100A300081E00E94F30641E062E080E00E94B5069A
:100A40008FEC97E00197F1F700C0000040E062E012
:100A500080E00E94B50669816295607F81E00E9416
:100A6000F30641E062E080E00E94B5068FEC97E07B
:100A70000197F1F700C0000040E062E080E00F90D5
:100A8000DF91CF910C94B50640E060E080E00E94D9
:100A9000B50640E061E080E00E94B5066981DECFE6
:100AA000813009F450C008F0089541E060E00E94F0
:100AB000670641E061E080E00E94670641E062E095
:100AC00080E00E9467066FEF81E00E94A5069FEB21
:100AD0002AED80E0915020408040E1F700C0000006
:100AE00060E082E00E9400058FEC97E00197F1F74B
:100AF00000C0000060E088E20E9400058FEC97E0F3
:100B00000197F1F700C0000060E08CE00E94000552
:100B10008FEC97E00197F1F700C0000060E081E002
:100B20000E9400058FE99FE00197F1F700C00000E7
:100B300060E086E00E9400058FEC97E00197F1F7F6
:100B400000C00000089541E060E080E00E94670678
:100B500041E061E080E00E94670641E062E080E001
:100B60000E9467066FEF81E00E94A5062FEB8AEDD9
:100B700090E0215080409040E1F700C0000061E02B
:100B800088E30E9400058FEC97E00197F1F700C021
:100B9000000061E08EE00E9400058FEC97E0019775
:100BA000F1F700C0000061E081E00E9400058FE9DC
:100BB0009FE00197F1F700C0000061E0BACF0F930A
:100BC0001F93CF93DF9300D0CDB7DEB78C0169833D
:100BD000009791F0FC018081811571F01A82698182
:100BE0000E94B004FA81FF5FFA83F8018A81E80F5E
:100BF000F11D80818111F3CF0F900F90DF91CF9184
:100C00001F910F910895813058F031F480E4860FE0
:100C1000806860E00C94000580E860E00C940005BA
:100C2000862F806860E00C940005FF920F931F935D
:100C3000CF93DF93CDB7DEB72C970FB6F894DEBF16
:100C40000FBECDBF4C879F938F937F936F9380E0B0
:100C500092E09F938F938E010F5F1F4F1F930F930F
:100C60000E94810A89810FB6F894DEBF0FBECDBF06
:100C7000811559F0F12C6C850E94B004F394F801B1
:100C8000EF0DF11D80818111F6CF2C960FB6F894EF
:100C9000DEBF0FBECDBFDF91CF911F910F91FF90AF
:100CA000089541E00C946706413021F0423009F08C
:100CB000089540E00C94B506413019F0423021F01F
:100CC000089540E00C94B50641E00C94B5068430DC
:100CD000C0F46830B0F44130A9F098F421E001C0CC
:100CE000220F6A95EAF72095823039F1833031F08E
:100CF000813039F18AB382238ABB089581B382237C
:100D000081BB089521E001C0220F6A95EAF7823085
:100D100061F0833031F0813061F08AB3822B8ABB7D
:100D2000089581B3822B81BB089584B3822B84BB49
:100D3000089587B3822B87BB089584B3822384BB35
:100D4000089587B3822387BB0895823049F020F449
:100D5000811541F067BB0895833031F461BB08957C
:100D600064BB08956ABB089508958430C0F4683068
:100D7000B0F44130A9F098F421E001C0220F6A9547
:100D8000EAF72095823039F1833031F0813039F142
:100D90008BB382238BBB089582B3822382BB0895D9
:100DA00021E001C0220F6A95EAF7823061F08330BA
:100DB00031F0813061F08BB3822B8BBB089582B30D
:100DC000822B82BB089585B3822B85BB089588B39F
:100DD000822B88BB089585B3822385BB089588B391
:100DE000822388BB0895823049F020F4811541F0B8
:100DF00068BB0895833031F462BB089565BB0895E4
:100E00006BBB0895089541155105A1F0843090F40D
:100E1000683080F4823099F0833079F0813059F471
:100E200086B390E002C0959587956A95E2F7817048
:100E3000FA018083089589B3F4CF80B3F2CF83B3EE
:100E4000F0CF6115710571F0823091F030F48115A9
:100E500059F086B3FB0180830895833021F480B379
:100E6000FB0180830895089589B3FB018083089571
:100E700083B3FB01808308958230B9F058F4811563
:100E8000E9F088B321E001C0220F6A95EAF78227D2
:100E900088BB08958330D9F482B321E001C0220FCA
:100EA0006A95EAF7822782BB089585B321E001C0E5
:100EB000220F6A95EAF7822785BB08958BB321E05C
:100EC00001C0220F6A95EAF782278BBB0895089527
:100ED0008630B1F0873019F0853009F1089564301B
:100EE00069F1653009F443C0663009F447C06730E2
:100EF000A9F785B7846085BF85B7886085BF0895E9
:100F0000643019F1653099F0663031F1673031F7AE
:100F100085B7816085BF85B7826085BF08956630DB
:100F200011F16730D9F684B7806484BF089585B71E
:100F3000816085BF85B78D7F85BF089585B78B7F1D
:100F400085BF85B7877F85BF089585B78E7F85BFAD
:100F500085B78D7F85BF089585B78E7F85BF85B79F
:100F6000826085BF089584B78F7B84BF089585B75D
:100F7000846085BF85B7877F85BF089585B78B7FE0
:100F800085BF85B7886085BF0895863049F0873072
:100F900019F0853049F008958BB780688BBF0895AC
:100FA0008BB780648BBF08958BB780628BBF089529
:100FB000863049F0873019F0853049F008958BB7B5
:100FC0008F778BBF08958BB78F7B8BBF08958BB7BF
:100FD0008F7D8BBF0895833058F46115710541F002
:100FE000E82FF0E0EE0FFF1FE65FFD4F6083718397
:100FF00008951F920F920FB60F9211242F933F93D3
:101000004F935F936F937F938F939F93AF93BF9310
:10101000EF93FF93E0910A02F0910B02309709F0F1
:101020000995FF91EF91BF91AF919F918F917F9122
:101030006F915F914F913F912F910F900FBE0F9045
:101040001F9018951F920F920FB60F9211242F9395
:101050003F934F935F936F937F938F939F93AF9340
:10106000BF93EF93FF93E0910C02F0910D02309744
:1010700009F00995FF91EF91BF91AF919F918F91E9
:101080007F916F915F914F913F912F910F900FBE84
:101090000F901F9018951F920F920FB60F92112468
:1010A0002F933F934F935F936F937F938F939F9370
:1010B000AF93BF93EF93FF93E0910E02F0910F0275
:1010C000309709F00995FF91EF91BF91AF919F91F2
:1010D0008F917F916F915F914F913F912F910F90E1
:1010E0000FBE0F901F9018958FB780688FBF08951F
:1010F0008FB78F778FBF0895EF92FF920F931F9353
:10110000CF93DF93CDB7DEB72B970FB6F894DEBF42
:101110000FBECDBFAE2DE982FF2DFA82E02F0B83EB
:10112000912F1C832D833E834F835887062F698719
:10113000672F7A87182F8B872D813E814F815885A5
:10114000E0921002F0921102E093120290931302C7
:101150002093140230931502409316025093170205
:10116000009318027093190280931A0280ECA13048
:1011700009F080E8E13009F474C0E23009F45AC0A3
:10118000F13009F45BC0913058F009F46FC092302F
:1011900009F475C0933009F46BC0973009F468C046
:1011A00080BD6130E8F55998220F331F441F551F49
:1011B000220F331F441F551F220F331F441F551F7B
:1011C000220F331F441F551F60E072E18AE790E051
:1011D0000E94590A21503109922F832F99B980BD5D
:1011E0005798569855981150173048F4E12FF0E071
:1011F000E558F24F0C947B0A569A579A559A01304B
:1012000098F4549A53982B960FB6F894DEBF0FBEFD
:10121000CDBFDF91CF911F910F91FF90EF90089577
:1012200079F080E090E0DACFF1F0023061F7549A83
:10123000539AE9CF8063F13009F0A5CF8860A3CF3E
:10124000599A220F331F441F551F220F331F441F6B
:10125000551F220F331F441F551FB6CF579A569A5A
:10126000CECF80628DCF539A5498CDCF826098CFE5
:10127000866096CF579AC3CF569A559AC0CF84604E
:101280008FCF9C015D9BFECF80911302893011F0BE
:101290002CB90895509830FFFBCF509A2CB908957F
:1012A0005F9BFECF80911302893009F48AB18CB123
:1012B0008CB190E00895DC019C91911581F020E0C3
:1012C000809113025D9BFECF893009F450989CB940
:1012D0002F5FFD01E20FF11D90819111F3CF089571
:1012E000DC01892BD9F05F9BFECF809113028930FE
:1012F000B1F09CB19CB19C936917B9F090E09F5FED
:101300005F9BFECF893009F42AB12CB12CB1FD01CD
:10131000E90FF11D20836213F2CF108208959AB174
:101320009CB19CB19C936913E9CFFD011082089593
:101330006115710579F0FC01680F791F9091130216
:1013400081915D9BFECF993009F450988CB9E617D6
:10135000F707B1F70895549A0895539A0895549849
:101360000895539808950895579A0895569A0895A0
:10137000559A089557980895569808955598089540
:10138000009721F080931F02909320020895009708
:1013900021F080931D0290931E020895009721F082
:1013A00080931B0290931C0208951F920F920FB618
:1013B0000F9211242F933F934F935F936F937F93DB
:1013C0008F939F93AF93BF93EF93FF93E0911F028F
:1013D000F0912002309719F080E090E00995FF919C
:1013E000EF91BF91AF919F918F917F916F915F919D
:1013F0004F913F912F910F900FBE0F901F90189516
:101400001F920F920FB60F9211242F933F934F9379
:101410005F936F937F938F939F93AF93BF93EF935C
:10142000FF93E0911D02F0911E02309709F009959B
:10143000FF91EF91BF91AF919F918F917F916F91AC
:101440005F914F913F912F910F900FBE0F901F9082
:1014500018951F920F920FB60F9211242F933F935E
:101460004F935F936F937F938F939F93AF93BF93AC
:10147000EF93FF93E0911B02F0911C02309709F06B
:101480000995FF91EF91BF91AF919F918F917F91BE
:101490006F915F914F913F912F910F900FBE0F90E1
:1014A0001F9018950E94B1020E944D030E94950260
:1014B000FBCFA1E21A2EAA1BBB1BFD010DC0AA1F68
:1014C000BB1FEE1FFF1FA217B307E407F50720F0AD
:1014D000A21BB30BE40BF50B661F771F881F991F28
:1014E0001A9469F760957095809590959B01AC0171
:1014F000BD01CF010895EE0FFF1F0590F491E02D7F
:101500000994AEE0B0E0E7E8FAE00C94520D86E012
:101510008C832B893C8929833A838FEF9FE78D83C6
:101520009E83AE01495E5F4F6D897E89CE01019633
:101530000E94A50AEF81F8852B893C89E20FF31FF1
:1015400010822E96E2E00C946E0DABE0B0E0EBEA78
:10155000FAE00C94450D6C017B018A01FC011682B6
:101560001782838181FFDFC13AE0532EF601238188
:10157000F70123FD859123FF81917F01811509F4F6
:1015800037C1853239F423FD959123FF91917F0175
:10159000953229F4B60190E00E94AC0CE7CF30E020
:1015A000912C612C712CF0E27F1640F59B32D9F022
:1015B00058F49032D1F09332F1F09E3291F576FCEE
:1015C00017C1689476F806C09D3291F09033C1F44B
:1015D000689470F8F70123FD959123FF91917F01A5
:1015E0009111E1CF28C0689471F8689472F8F2CF35
:1015F000689473F8EFCF689474F8ECCF77FC1BC055
:1016000080ED890F8A30C8F676FE05C0959C800D66
:101610001124982EDFCF659C800D1124682E7F2A1F
:10162000D9CF9C3619F4689477F8D4CF9C3409F458
:1016300045C0983679F2892F8F7D8554833008F420
:101640003FC0933609F461C0933709F46BC09335FA
:1016500009F477C0943619F0993609F0A4C0F8015E
:1016600077FE9AC061917191819191918F01272D9F
:101670002F76822E97FF04C00E943A0D689487F857
:101680002AE030E05E014FEFA41AB40AA5010E94DF
:10169000DC0C782E7A1886FECFC0882D8E7F7914C8
:1016A00008F0C9C084FE1DC182FC11C12EEE822249
:1016B000B92C882D867809F4CBC00EC131E08ACFD1
:1016C000311501F1085F1F4F8FE3898321E0822EDE
:1016D000912C5E012FEFA21AB20AE89477F873FCFE
:1016E00003C086149104F0F18114910409F041C003
:1016F000611409F43BCFB60180E290E00E94AC0C8B
:101700006A94F6CF0C5F1F4FDFCFF8018081898389
:101710000E5F1F4F91E0892E912C5E01FFEFAF1AF3
:10172000BF0ADBCFF801A190B1908F01692D70E065
:1017300076FC02C06FEF7FEFC5010E94A10C4C0147
:10174000CCCFF801A190B1908F01692D70E076FCAB
:1017500002C06FEF7FEFC5010E94960C4C016894A8
:1017600077F8BDCFB60180E290E00E94AC0C6A949D
:10177000B8CFF50177FC859177FE81915F01B601C5
:1017800090E00E94AC0C81E0611001C080E0681A1A
:10179000F1E08F1A9108A8CF61917191872F880F7E
:1017A000880B982F63CF9537C9F4872CE89484F879
:1017B0002AE030E0F80187FE39C061917191819192
:1017C00091918F015E01FFEFAF1ABF0AA5010E9440
:1017D000DC0C782E7A18E89487F85DCF872D897F06
:1017E000882E903799F058F49835A9F09F36D9F0A3
:1017F000F601868197812B96EFE00C94610D983766
:10180000B9F774FC05C020E130E0D4CF689484F8C7
:10181000689482F8F8CF74FE03C0E72DE6608E2E40
:1018200020E132E0C7CF28E030E0C4CF6191719170
:1018300080E090E0C6CF882EB72C84FE3ACFFE0120
:10184000E70DF11D8081803309F044C049EE842208
:1018500083FC0EC080FE51C0972CB61418F4960C71
:101860009B18B62C862D8B196B1408F480E0B80EEB
:10187000B61408F044C06B1884FE43C0B60180E380
:1018800090E00E94AC0C82FE09C088E590E081FCEB
:1018900002C088E790E0B6010E94AC0C7914E0F138
:1018A0005E018FEFA81AB80A7A9482E0882E912CF4
:1018B0008C0E9D1E870C911CF40182914F01B60184
:1018C00090E00E94AC0C8A149B04B1F711CFB92CA4
:1018D000882EB5CF82FC02C0B394BACFB394B39430
:1018E000B7CFB92C882EE5CEB60180E290E00E94F9
:1018F000AC0CA394A614C0F3B5CFAB2CFBCF612CDA
:10190000BBCF882D867851F280E281FC8BE287FC88
:101910008DE2B60190E0C0CFB60180E390E00E9476
:10192000AC0C9A94BBCF8FEF9FEF65CFFC01059075
:10193000615070400110D8F7809590958E0F9F1FD1
:101940000895FC016150704001900110D8F7809516
:1019500090958E0F9F1F08950F931F93CF93DF9342
:10196000182F092FEB018B8181FD09C00FEF1FEFAD
:10197000812F902FDF91CF911F910F91089582FFBA
:1019800014C02E813F818C819D81281739073CF43A
:10199000E881F981CF0101968883998310838E8134
:1019A0009F8101968E839F83E3CFE885F985812F00
:1019B0000995892BA1F3DACFFA01AA27283051F132
:1019C000203181F1E8946F936E7F6E5F7F4F8F4F70
:1019D0009F4FAF4FB1E03ED0B4E03CD0670F781FCF
:1019E000891F9A1FA11D680F791F8A1F911DA11DB4
:1019F0006A0F711D811D911DA11D20D009F46894ED
:101A00003F912AE0269F11243019305D3193DEF694
:101A1000CF010895462F4770405D4193B3E00FD04A
:101A2000C9F7F6CF462F4F70405D4A3318F0495D35
:101A300031FD4052419302D0A9F7EACFB4E0A69518
:101A40009795879577956795BA95C9F7009761053A
:101A5000710508959B01AC010A2E06945795479590
:101A600037952795BA95C9F7620F731F841F951F85
:101A7000A01D089590958095709561957F4F8F4F2B
:101A80009F4F08952F923F924F925F926F927F9255
:101A90008F929F92AF92BF92CF92DF92EF92FF927E
:101AA0000F931F93CF93DF93CDB7DEB7CA1BDB0B2A
:101AB0000FB6F894DEBF0FBECDBF09942A883988CF
:101AC00048885F846E847D848C849B84AA84B984D6
:101AD000C884DF80EE80FD800C811B81AA81B981E2
:101AE000CE0FD11D0FB6F894DEBF0FBECDBFED01F6
:101AF0000895F894FFCF3A092F09FE082E09FD0832
:041B00003C09FC0898
:101B0400FF00000003802500000200003132334151
:101B140034353642373839434530584400010203DE
:101B24000202020204050607020202025041535354
:101B3400574F52443A0041444D494E204C4F474977
:101B44004E0041444D494E204C4F47494E0A0057E0
:101B5400524F4E472050415353574F524400413A3D
:101B64004F50454E20423A434C4F534500433A525E
:101B74004553455420443A45584954005359535405
:101B8400454D2052455345540A00417661696C61C4
:101B9400626C653A20005072657373204500454EAF
:101BA4005445522050415353574F524400414343EC
:101BB400455353204752414E5445440056454849E5
:101BC400434C4520454E54455245440D0A00537933
:101BD4007374656D204572726F72005645484943AF
:101BE4004C45204558495445440056454849434CC2
:101BF40045204558495445440D0A005061726B69AB
:101C04006E672046756C6C005041524B494E47201C
:101C140046554C4C0A005061726B696E67204176E0
:101C240061696C61626C65005041524B494E4720BA
:101C3400415641494C41424C450A00454E54525983
:101C44002047415445204F50454E45440A00454ED7
:101C5400545259204741544520434C4F5345440A5C
:101C640000455849542047415445204F50454E455E
:101C7400440A0045584954204741544520434C4F99
:101C84005345440A0057656C636F6D6520746F009B
:101C940047657374616C6C205061726B696E670088
:041CA400256C750036
:00000001FF
