:100000000C942A000C9478080C94A1080C94CA084B
:100010000C9447000C9447000C9447000C94470044
:100020000C9447000C9447000C9447000C94470034
:100030000C9447000C946C0A0C94C40A0C949B0A10
:100040000C9447000C9447000C9447000C94470014
:100050000C94470011241FBECFE5D8E0DEBFCDBF12
:1000600012E0A0E6B0E0EAE3FCE102C005900D92E8
:10007000A035B107D9F722E0A0E5B2E001C01D929A
:10008000AD3EB207E1F70E94ED0A0C94140E0C94F9
:10009000000010925002089580915002089510922D
:1000A00050020895EF92FF920F931F93CF93DF9327
:1000B00000D000D0CDB7DEB760E080E00E948206BD
:1000C00060E08CE890E00E945E0661E080E00E94C3
:1000D00082068E010F5F1F4F7E0125E0E20EF11CAC
:1000E0000E949A0490ED980F9A30D0F7F80181930E
:1000F0008F0160E08AE20E942F05FFEF21EE84E08D
:10010000F15020408040E1F700C000000E949A04B6
:100110008F3FE1F70E151F0519F78A81823371F1C0
:100120001092500260E080E00E94820660E08FEA58
:1001300090E00E945E0641E064E080E00E94D30609
:100140009FEFEEE9F4E29150E040F040E1F700C0AB
:10015000000060E081E00E947F0560E08EEB90E0AF
:100160000E945E0680E00F900F900F900F90DF913D
:10017000CF911F910F91FF90EF9008958B81833362
:1001800079F68C81843361F68981813349F681E087
:100190008093500260E080E00E94820660E086E981
:1001A00090E00E945E0682EA90E00E94DA0941E057
:1001B00063E080E00E94D30681E0D5CF80915002B9
:1001C000811108950C9452001092510208950F93DA
:1001D0001F93CF93DF9300D000D000D0CDB7DEB710
:1001E0000E94BC028111C2C060E081E00E947F05D4
:1001F00060E084EC90E00E945E060E94F703682FA6
:1002000070E080E090E040E00E94940661E080E0D1
:100210000E94820660E081E00E947F0560E080ED40
:1002200090E00E945E060E949A048534E1F760E047
:1002300081E00E947F0560E088ED90E00E945E060C
:1002400060E081E00E9482068E010F5F1F4FCE01A9
:1002500005968D839E830E949A0490ED980F9A30A4
:10026000D0F7F80181938F0160E08AE20E942F05A8
:100270008D819E810817190771F78981813321F4D7
:100280008A81823309F477C041E063E080E00E9414
:10029000DB0641E064E080E00E94D30660E081E09C
:1002A0000E947F0560E08FEA90E00E945E062FEFDB
:1002B0008EE994E2215080409040E1F700C00000B8
:1002C00060E081E00E947F0560E088E091E00E94AC
:1002D0005E0685E191E00E94DA09EFEFF9E628E198
:1002E000E150F0402040E1F700C0000060E081E014
:1002F0000E947F0560E085E291E00E945E068FEF3C
:100300009EE9E4E281509040E040E1F700C0000047
:1003100041E064E080E00E94D30641E063E080E0D9
:100320000E94DB06FFEF2EE984E2F150204080407E
:10033000E1F700C0000041E064E080E00E94DB06DD
:1003400041E063E080E00E94DB0660E081E00E9423
:100350007F05109251020F900F900F900F900F9009
:100360000F90DF91CF911F910F9108950E948E02FF
:1003700010925102F0CF8B81833309F085CF8C81AD
:10038000843309F081CF60E081E00E947F0560E066
:1003900087EE90E00E945E060E94CA0286EF90E01F
:1003A0000E94DA090E94E2039FEFE3EDF0E391502F
:1003B000E040F040E1F700C000000E94D4020E943B
:1003C000FD03811529F00E948E0210925102C3CFC5
:1003D0000E94A502FACF81E0809351020895809196
:1003E0005102089560E081E00E947F0560E088E3AB
:1003F00091E00C945E0681E0809352020895109281
:10040000520208950E94F703823081F10E94DD02BA
:1004100060E081E00E947F0560E080E00E9482064B
:1004200060E087E791E00E945E060E94EC0386E8A8
:1004300091E00E94DA092FEF83ED90E32150804094
:100440009040E1F700C000000E94E7020E94FD0317
:10045000811106C00E94A50260E081E00C947F0536
:100460000E948E0260E081E00C947F0560E081E0F4
:100470000E947F0560E085E491E00E945E0683E5CE
:1004800091E00E94DA0941E063E080E00E94DB062F
:1004900041E064E080E00E94D3062FEF8EE994E211
:1004A000215080409040E1F700C0000041E064E04E
:1004B00080E00E94DB0641E063E080E00E94DB0612
:1004C00060E081E00E947F0560E08AE691E00E94A2
:1004D0005E062FEF89E698E1215080409040E1F7D9
:1004E00000C00000089580915202813011F080E038
:1004F000089510925202089563E080E00E94D006B1
:1005000064E080E00E94D00641E063E080E00E9469
:10051000DB0641E064E080E00C94DB0660E081E013
:100520000E947F0560E087E991E00E945E0641E05D
:1005300064E080E00E94D30641E063E080E00E9436
:10054000DB0684EA91E00C94DA0960E081E00E9425
:100550007F0560E082EB91E00E945E0641E063E08F
:1005600080E00E94D30641E064E080E00E94DB0668
:1005700084EC91E00C94DA090E94F703982F81E053
:10058000911180E008950E9405040E9436041092A3
:10059000530208950E94190487ED91E00E94DA0940
:1005A00081E08093530208950E9436048AEE91E020
:1005B0000E94DA091092530208950E9419048DEFE7
:1005C00091E00E94DA0981E08093530208950E942D
:1005D00036048FE092E00E94DA09109253020895E7
:1005E0008091530208950C94A502CF930E94F703C3
:1005F000C82F809160008C1791F060E081E00E942C
:100600007F0560E084EC90E00E945E066C2F70E055
:1006100080E090E040E00E949406C0936000CF919B
:100620000895EF92FF920F931F93CF93DF93CDB76F
:10063000DEB72B970FB6F894DEBF0FBECDBF40E0FC
:1006400062E083E00E94E60640E063E083E00E940F
:10065000E60641E062E083E00E94340741E063E0A7
:1006600083E00E94340766E086E00E94E70766E0C8
:1006700087E00E94E7076BEE71E080E00E946A0865
:100680006BEF71E081E00E946A0886E00E944408F6
:1006900087E00E9444080E94F3088BE0E1E6F0E066
:1006A000DE01119601900D928A95E1F7E980FA80BA
:1006B0000B811C812D813E814F81588569857A850A
:1006C0008B850E94FB080E945D0480E00E94CF059C
:1006D00063E080E00E94D00664E080E00E94D006E3
:1006E00082E00E94CA030E94E4000E94FF010E946F
:1006F000C3020E947C020E9449000E94F30260E053
:1007000081E00E947F0560E080E00E94820660E058
:1007100081E292E00E945E0660E081E00E94820633
:1007200060E089E292E00E945E062FEF8EE994E29B
:10073000215080409040E1F700C0000060E081E07F
:100740000E947F0560E080E00E94820660E080E316
:1007500092E00E945E0660E081E00E94820660E016
:100760008BE392E00E945E062FEF83ED90E3215031
:1007700080409040E1F700C000002B960FB6F8943F
:10078000DEBF0FBECDBFDF91CF911F910F91FF90C4
:10079000EF9008950C94DD030E94EF01811105C0D4
:1007A0000E947302811107C008950E94E7000E9411
:1007B00073028115C9F30C940202809355021092C2
:1007C000540208958091540290915502891718F4AB
:1007D0008F5F80935402089580915402811519F01F
:1007E000815080935402089580915402089580911D
:1007F000550290915402891B089581E02091540282
:1008000090915502291380E0089541E065E083E06E
:100810000E94E60641E066E083E00E94E60640E0D2
:1008200065E083E00E94340740E066E083E00C94DA
:10083000340741E065E083E00E94340740E066E071
:1008400083E00E9434072FEF82E597E0215080403B
:100850009040E1F700C0000040E065E083E00E94C6
:10086000340740E066E083E00C94340740E065E044
:1008700083E00E94340741E066E083E00E94340791
:100880002FEF82E597E0215080409040E1F700C0D3
:10089000000040E065E083E00E94340740E066E04D
:1008A00083E00C94340740E065E083E00E94340765
:1008B00040E066E083E00C943407EF92FF920F93E0
:1008C0001F93CF93DF93C4E8D0E098E8E92E90E03F
:1008D000F92E0991F70111917F0140E0602F812FDE
:1008E0000E94E60641E0602F812F0E943407F0E06D
:1008F000C838DF0771F7CCE7D0E080E8E82E80E069
:10090000F82E0991F70111917F0141E0602F812FAD
:100910000E94E60641E0602F812F0E943407F0E03C
:10092000C038DF0771F7DF91CF911F910F91FF90D2
:10093000EF9008952F923F924F925F926F927F9225
:100940008F929F92AF92BF92CF92DF92EF92FF92DF
:100950000F931F93CF93DF930F92CDB7DEB719821A
:100960005CE7852E50E0952E60E8662E60E0762EDE
:10097000A12CB12CF4012080F301308040E0622DE5
:10098000832D0E94340734E8C32E30E0D32E48E88C
:10099000E42E40E0F42E00E010E0F6015080F70174
:1009A0004080AE014F5F5F4F652D842D0E9482070E
:1009B0008981811599F19FEFC91AD90AEFEFEE1AD3
:1009C000FE0A0F5F1F4F0430110539F7FFEF8F1A32
:1009D0009F0A8FEF681A780A41E0622D832D0E94EA
:1009E00034079FEFA91AB90AE4E0AE16B10411F674
:1009F0001FEF812F0F90DF91CF911F910F91FF90EB
:100A0000EF90DF90CF90BF90AF909F908F907F90AE
:100A10006F905F904F903F902F900895C501880F81
:100A2000991F880F991F84599F4FFC01E00FF11FF8
:100A30001081AE014F5F5F4F652D842D0E948207AC
:100A400089818115B1F38FE39CE90197F1F700C02B
:100A5000000041E0622D832D0E943407CACFCF935E
:100A6000DF930F92CDB7DEB789836130E1F120F0DB
:100A70000F90DF91CF91089541E080E00E9434070C
:100A800040E061E080E00E9434076981607F81E09E
:100A90000E94720741E062E080E00E9434078FEC20
:100AA00097E00197F1F700C0000040E062E080E0CD
:100AB0000E94340769816295607F81E00E9472071D
:100AC00041E062E080E00E9434078FEC97E00197FC
:100AD000F1F700C0000040E062E080E00F90DF919D
:100AE000CF910C94340741E060E080E00E9434072D
:100AF00040E061E080E00E9434076981DECFCF935F
:100B0000DF930F92CDB7DEB789836130E1F120F03A
:100B10000F90DF91CF91089540E080E00E9434076C
:100B200040E061E080E00E9434076981607F81E0FD
:100B30000E94720741E062E080E00E9434078FEC7F
:100B400097E00197F1F700C0000040E062E080E02C
:100B50000E94340769816295607F81E00E9472077C
:100B600041E062E080E00E9434078FEC97E001975B
:100B7000F1F700C0000040E062E080E00F90DF91FC
:100B8000CF910C94340740E060E080E00E9434078D
:100B900040E061E080E00E9434076981DECF81306F
:100BA00009F450C008F0089541E060E00E94E606B4
:100BB00041E061E080E00E94E60641E062E080E022
:100BC0000E94E6066FEF81E00E9424079FEB2AED6A
:100BD00080E0915020408040E1F700C0000060E0DC
:100BE00082E00E947F058FEC97E00197F1F700C04B
:100BF000000060E088E20E947F058FEC97E001979B
:100C0000F1F700C0000060E08CE00E947F058FECEF
:100C100097E00197F1F700C0000060E081E00E94DA
:100C20007F058FE99FE00197F1F700C0000060E0C9
:100C300086E00E947F058FEC97E00197F1F700C0F6
:100C40000000089541E060E080E00E94E60641E097
:100C500061E080E00E94E60641E062E080E00E9400
:100C6000E6066FEF81E00E9424072FEB8AED90E00B
:100C7000215080409040E1F700C0000061E088E32F
:100C80000E947F058FEC97E00197F1F700C000000C
:100C900061E08EE00E947F058FEC97E00197F1F70D
:100CA00000C0000061E081E00E947F058FE99FE0C5
:100CB0000197F1F700C0000061E0BACF0F931F93D6
:100CC000CF93DF9300D0CDB7DEB78C016983009757
:100CD00091F0FC018081811571F01A8269810E9476
:100CE0002F05FA81FF5FFA83F8018A81E80FF11D71
:100CF00080818111F3CF0F900F90DF91CF911F91E1
:100D00000F910895813058F031F480E4860F8068A7
:100D100060E00C947F0580E860E00C947F05862FEE
:100D2000806860E00C947F05FF920F931F93CF9330
:100D3000DF93CDB7DEB72C970FB6F894DEBF0FBEAA
:100D4000CDBF4C879F938F937F936F938BE492E0FB
:100D50009F938F938E010F5F1F4F1F930F930E94DE
:100D60001C0B89810FB6F894DEBF0FBECDBF811575
:100D700059F0F12C6C850E942F05F394F801EF0DCA
:100D8000F11D80818111F6CF2C960FB6F894DEBF4D
:100D90000FBECDBFDF91CF911F910F91FF900895AE
:100DA00041E00C94E606413021F0423009F008950C
:100DB00040E00C943407413019F0423021F008959E
:100DC00040E00C94340741E00C9434078430C0F4C4
:100DD0006830B0F44130A9F098F421E001C0220F4E
:100DE0006A95EAF72095823039F1833031F081300D
:100DF00039F18AB382238ABB089581B3822381BBF0
:100E0000089521E001C0220F6A95EAF7823061F06F
:100E1000833031F0813061F08AB3822B8ABB089530
:100E200081B3822B81BB089584B3822B84BB089548
:100E300087B3822B87BB089584B3822384BB089534
:100E400087B3822387BB0895823049F020F481154F
:100E500041F067BB0895833031F461BB089564BBF2
:100E600008956ABB089508958430C0F46830B0F4E2
:100E70004130A9F098F421E001C0220F6A95EAF709
:100E80002095823039F1833031F0813039F18BB3E4
:100E900082238BBB089582B3822382BB089521E015
:100EA00001C0220F6A95EAF7823061F0833031F099
:100EB000813061F08BB3822B8BBB089582B3822B80
:100EC00082BB089585B3822B85BB089588B3822B9E
:100ED00088BB089585B3822385BB089588B3822398
:100EE00088BB0895823049F020F4811541F068BB39
:100EF0000895833031F462BB089565BB08956BBBE0
:100F00000895089541155105A1F0843090F468309A
:100F100080F4823099F0833079F0813059F486B3CF
:100F200090E002C0959587956A95E2F78170FA0185
:100F30008083089589B3F4CF80B3F2CF83B3F0CF29
:100F40006115710571F0823091F030F4811559F01E
:100F500086B3FB0180830895833021F480B3FB01C5
:100F600080830895089589B3FB018083089583B336
:100F7000FB01808308958230B9F058F48115E9F0BF
:100F800088B321E001C0220F6A95EAF7822788BB67
:100F900008958330D9F482B321E001C0220F6A950D
:100FA000EAF7822782BB089585B321E001C0220FB2
:100FB0006A95EAF7822785BB08958BB321E001C0CB
:100FC000220F6A95EAF782278BBB08950895863031
:100FD000B1F0873019F0853009F10895643069F176
:100FE000653009F443C0663009F447C06730A9F79B
:100FF00085B7846085BF85B7886085BF08956430F4
:1010000019F1653099F0663031F1673031F785B705
:10101000816085BF85B7826085BF0895663011F114
:101020006730D9F684B7806484BF089585B781603E
:1010300085BF85B78D7F85BF089585B78B7F85BFB9
:1010400085B7877F85BF089585B78E7F85BF85B7B4
:101050008D7F85BF089585B78E7F85BF85B78260F8
:1010600085BF089584B78F7B84BF089585B784605A
:1010700085BF85B7877F85BF089585B78B7F85BF7F
:1010800085B7886085BF0895863049F0873019F0AC
:10109000853049F008958BB780688BBF08958BB772
:1010A00080648BBF08958BB780628BBF08958630B4
:1010B00049F0873019F0853049F008958BB78F7764
:1010C0008BBF08958BB78F7B8BBF08958BB78F7DB8
:1010D0008BBF0895833058F46115710541F0E82FF6
:1010E000F0E0EE0FFF1FEA5AFD4F60837183089511
:1010F0001F920F920FB60F9211242F933F934F938D
:101100005F936F937F938F939F93AF93BF93EF936F
:10111000FF93E0915602F0915702309709F009953C
:10112000FF91EF91BF91AF919F918F917F916F91BF
:101130005F914F913F912F910F900FBE0F901F9095
:1011400018951F920F920FB60F9211242F933F9371
:101150004F935F936F937F938F939F93AF93BF93BF
:10116000EF93FF93E0915802F0915902309709F004
:101170000995FF91EF91BF91AF919F918F917F91D1
:101180006F915F914F913F912F910F900FBE0F90F4
:101190001F9018951F920F920FB60F9211242F9344
:1011A0003F934F935F936F937F938F939F93AF93EF
:1011B000BF93EF93FF93E0915A02F0915B02309757
:1011C00009F00995FF91EF91BF91AF919F918F9198
:1011D0007F916F915F914F913F912F910F900FBE33
:1011E0000F901F9018958FB780688FBF08958FB7A5
:1011F0008F778FBF0895EF92FF920F931F93CF9336
:10120000DF93CDB7DEB72B970FB6F894DEBF0FBED6
:10121000CDBFAE2DE982FF2DFA82E02F0B83912FF7
:101220001C832D833E834F835887062F6987672F42
:101230007A87182F8B872D813E814F815885E092C8
:101240005E02F0925F02E09360029093610220934D
:1012500062023093630240936402509365020093EC
:101260006602709367028093680280ECA13009F0F7
:1012700080E8E13009F474C0E23009F45AC0F1307A
:1012800009F45BC0913058F009F46FC0923009F452
:1012900075C0933009F46BC0973009F468C080BD05
:1012A0006130E8F55998220F331F441F551F220F54
:1012B000331F441F551F220F331F441F551F220F7A
:1012C000331F441F551F60E072E18AE790E00E94DF
:1012D000F40A21503109922F832F99B980BD579874
:1012E000569855981150173048F4E12FF0E0EA5E17
:1012F000F14F0C94160B569A579A559A013098F460
:10130000549A53982B960FB6F894DEBF0FBECDBFFC
:10131000DF91CF911F910F91FF90EF90089579F099
:1013200080E090E0DACFF1F0023061F7549A539AFE
:10133000E9CF8063F13009F0A5CF8860A3CF599A37
:10134000220F331F441F551F220F331F441F551FE9
:10135000220F331F441F551FB6CF579A569ACECF30
:1013600080628DCF539A5498CDCF826098CF86609B
:1013700096CF579AC3CF569A559AC0CF84608FCFD5
:101380009C015D9BFECF80916102893011F02CB9E8
:101390000895509830FFFBCF509A2CB908955F9B69
:1013A000FECF80916102893009F48AB18CB18CB191
:1013B00090E00895DC019C91911581F020E08091EE
:1013C00061025D9BFECF893009F450989CB92F5F74
:1013D000FD01E20FF11D90819111F3CF0895DC0121
:1013E000892BD9F05F9BFECF809161028930B1F0EB
:1013F0009CB19CB19C936917B9F090E09F5F5F9B93
:10140000FECF893009F42AB12CB12CB1FD01E90FCE
:10141000F11D20836213F2CF108208959AB19CB11E
:101420009CB19C936913E9CFFD0110820895611569
:10143000710579F0FC01680F791F9091610281912B
:101440005D9BFECF993009F450988CB9E617F707E9
:10145000B1F70895DC0190915C0220915D0229179B
:10146000A9F0E92FF0E0EE0FFF1FE359FD4F2081B7
:1014700031812D933D939F5F903420F490935C02D3
:1014800081E0089510925C0281E0089580E0089563
:10149000549A0895539A0895549808955398089526
:1014A0000895579A0895569A0895559A0895579809
:1014B000089556980895559808950895009721F035
:1014C00080936B0290936C020895009721F08093B3
:1014D000690290936A0208952F932FB72F933F9339
:1014E0008F939F93EF93FF93809161028730D9F0A0
:1014F0002CB130E080915D02E82FF0E08F5F803406
:1015000008F080E0EE0FFF1FE359FD4F2083318389
:1015100080935D02FF91EF919F918F913F912F9169
:101520002FBF2F9118958AB186952CB130E080FF9E
:10153000E1CF31E0DFCF1F920F920FB60F9211244F
:101540002F933F934F935F936F937F938F939F93CB
:10155000AF93BF93EF93FF93E0916B02F0916C0216
:10156000309709F00995FF91EF91BF91AF919F914D
:101570008F917F916F915F914F913F912F910F903C
:101580000FBE0F901F9018951F920F920FB60F92DB
:1015900011242F933F934F935F936F937F938F9378
:1015A0009F93AF93BF93EF93FF93E0916902F09104
:1015B0006A02309709F00995FF91EF91BF91AF91C1
:1015C0009F918F917F916F915F914F913F912F915B
:1015D0000F900FBE0F901F9018950E9411030E944C
:1015E000CC030E94F502FBCFA1E21A2EAA1BBB1B63
:1015F000FD010DC0AA1FBB1FEE1FFF1FA217B307DF
:10160000E407F50720F0A21BB30BE40BF50B661FF4
:10161000771F881F991F1A9469F7609570958095B8
:1016200090959B01AC01BD01CF010895EE0FFF1F06
:101630000590F491E02D0994AEE0B0E0E2E2FBE029
:101640000C94ED0D86E08C832B893C8929833A83A9
:101650008FEF9FE78D839E83AE01495E5F4F6D895B
:101660007E89CE0101960E94400BEF81F8852B897F
:101670003C89E20FF31F10822E96E2E00C94090ED3
:10168000ABE0B0E0E6E4FBE00C94E00D6C017B0124
:101690008A01FC0116821782838181FFDFC13AE053
:1016A000532EF6012381F70123FD859123FF8191BC
:1016B0007F01811509F437C1853239F423FD9591F5
:1016C00023FF91917F01953229F4B60190E00E94A9
:1016D000470DE7CF30E0912C612C712CF0E27F16A2
:1016E00040F59B32D9F058F49032D1F09332F1F0BA
:1016F0009E3291F576FC17C1689476F806C09D324B
:1017000091F09033C1F4689470F8F70123FD95913E
:1017100023FF91917F019111E1CF28C0689471F866
:10172000689472F8F2CF689473F8EFCF689474F805
:10173000ECCF77FC1BC080ED890F8A30C8F676FEAF
:1017400005C0959C800D1124982EDFCF659C800DDF
:101750001124682E7F2AD9CF9C3619F4689477F823
:10176000D4CF9C3409F445C0983679F2892F8F7D07
:101770008554833008F43FC0933609F461C0933731
:1017800009F46BC0933509F477C0943619F0993693
:1017900009F0A4C0F80177FE9AC06191719181911E
:1017A00091918F01272D2F76822E97FF04C00E94E2
:1017B000D50D689487F82AE030E05E014FEFA41A57
:1017C000B40AA5010E94770D782E7A1886FECFC044
:1017D000882D8E7F791408F0C9C084FE1DC182FC5B
:1017E00011C12EEE8222B92C882D867809F4CBC047
:1017F0000EC131E08ACF311501F1085F1F4F8FE331
:10180000898321E0822E912C5E012FEFA21AB20A69
:10181000E89477F873FC03C086149104F0F1811406
:10182000910409F041C0611409F43BCFB60180E294
:1018300090E00E94470D6A94F6CF0C5F1F4FDFCFF8
:10184000F801808189830E5F1F4F91E0892E912CD2
:101850005E01FFEFAF1ABF0ADBCFF801A190B19094
:101860008F01692D70E076FC02C06FEF7FEFC5013C
:101870000E943C0D4C01CCCFF801A190B1908F019A
:10188000692D70E076FC02C06FEF7FEFC5010E940A
:10189000310D4C01689477F8BDCFB60180E290E03D
:1018A0000E94470D6A94B8CFF50177FC859177FEC9
:1018B00081915F01B60190E00E94470D81E06110C7
:1018C00001C080E0681AF1E08F1A9108A8CF6191F9
:1018D0007191872F880F880B982F63CF9537C9F4A4
:1018E000872CE89484F82AE030E0F80187FE39C0BC
:1018F00061917191819191918F015E01FFEFAF1A1A
:10190000BF0AA5010E94770D782E7A18E89487F80F
:101910005DCF872D897F882E903799F058F49835C0
:10192000A9F09F36D9F0F601868197812B96EFE0DA
:101930000C94FC0D9837B9F774FC05C020E130E039
:10194000D4CF689484F8689482F8F8CF74FE03C00A
:10195000E72DE6608E2E20E132E0C7CF28E030E0B0
:10196000C4CF6191719180E090E0C6CF882EB72CF2
:1019700084FE3ACFFE01E70DF11D8081803309F02E
:1019800044C049EE842283FC0EC080FE51C0972CD7
:10199000B61418F4960C9B18B62C862D8B196B1464
:1019A00008F480E0B80EB61408F044C06B1884FE4A
:1019B00043C0B60180E390E00E94470D82FE09C05B
:1019C00088E590E081FC02C088E790E0B6010E94C3
:1019D000470D7914E0F15E018FEFA81AB80A7A94E6
:1019E00082E0882E912C8C0E9D1E870C911CF40198
:1019F00082914F01B60190E00E94470D8A149B042A
:101A0000B1F711CFB92C882EB5CF82FC02C0B394A8
:101A1000BACFB394B394B7CFB92C882EE5CEB60124
:101A200080E290E00E94470DA394A614C0F3B5CFC6
:101A3000AB2CFBCF612CBBCF882D867851F280E296
:101A400081FC8BE287FC8DE2B60190E0C0CFB6014D
:101A500080E390E00E94470D9A94BBCF8FEF9FEFF9
:101A600065CFFC010590615070400110D8F780955A
:101A700090958E0F9F1F0895FC016150704001905A
:101A80000110D8F7809590958E0F9F1F08950F93A2
:101A90001F93CF93DF93182F092FEB018B8181FDCB
:101AA00009C00FEF1FEF812F902FDF91CF911F9172
:101AB0000F91089582FF14C02E813F818C819D81FA
:101AC000281739073CF4E881F981CF010196888312
:101AD000998310838E819F8101968E839F83E3CFAC
:101AE000E885F985812F0995892BA1F3DACFFA01D1
:101AF000AA27283051F1203181F1E8946F936E7F4D
:101B00006E5F7F4F8F4F9F4FAF4FB1E03ED0B4E03D
:101B10003CD0670F781F891F9A1FA11D680F791F7E
:101B20008A1F911DA11D6A0F711D811D911DA11D8F
:101B300020D009F468943F912AE0269F112430199F
:101B4000305D3193DEF6CF010895462F4770405D3A
:101B50004193B3E00FD0C9F7F6CF462F4F70405DE9
:101B60004A3318F0495D31FD4052419302D0A9F744
:101B7000EACFB4E0A6959795879577956795BA953E
:101B8000C9F700976105710508959B01AC010A2E04
:101B900006945795479537952795BA95C9F7620FDB
:101BA000731F841F951FA01D0895909580957095B3
:101BB00061957F4F8F4F9F4F08952F923F924F9285
:101BC0005F926F927F928F929F92AF92BF92CF92CD
:101BD000DF92EF92FF920F931F93CF93DF93CDB7D6
:101BE000DEB7CA1BDB0B0FB6F894DEBF0FBECDBF4E
:101BF00009942A88398848885F846E847D848C841F
:101C00009B84AA84B984C884DF80EE80FD800C8127
:101C10001B81AA81B981CE0FD11D0FB6F894DEBF0A
:101C20000FBECDBFED010895F894FFCFB909AE09FD
:0A1C30007D09AD097C09BB097B09A1
:101C3A00FF0000000380250000020000313233411A
:101C4A0034353642373839434530584400010203A7
:101C5A00020202020405060702020202504153531D
:101C6A00574F52443A0041444D494E204C4F474940
:101C7A004E0041444D494E204C4F47494E0A0057A9
:101C8A00524F4E472050415353574F5244004552EA
:101C9A00524F5200417661696C61626C653A20006C
:101CAA005072657373204500454E54455220504189
:101CBA005353574F524400414343455353204752CD
:101CCA00414E5445440056454849434C4520454EEB
:101CDA0054455245440D0A004552524F5220535919
:101CEA005354454D00204552524F5220454E5445BB
:101CFA00524E200A0053595354454D2057414954D6
:101D0A00494E472E2E2E2E0053797374656D204549
:101D1A0072726F72005041524B494E4720454D50E6
:101D2A005459004552524F523A205041524B494E53
:101D3A004720454D5054590D0A0053595354454DA7
:101D4A002053544152540056454849434C45204576
:101D5A0058495445440056454849434C452045583E
:101D6A00495445440D0A005061726B696E672046FA
:101D7A00756C6C005041524B494E472046554C4CAD
:101D8A000A005061726B696E6720417661696C6105
:101D9A00626C65005041524B494E472041564149B9
:101DAA004C41424C450A00454E5452592047415431
:101DBA0045204F50454E45440A00454E545259203D
:101DCA004741544520434C4F5345440A004558491E
:101DDA00542047415445204F50454E45440A00453A
:101DEA00584954204741544520434C4F5345440ACF
:101DFA000053595354454D20005354415254200026
:101E0A0057656C636F6D6520746F00476573746105
:101E1A006C6C205061726B696E6700256C750000EE
:00000001FF
